:020000040800F2
:1000000000500020E1860008211D0008231D000883
:10001000251D0008271D0008291D000800000000FC
:100020000000000000000000000000002B1D000880
:100030002D1D0008000000002F1D0008311D0008C4
:1000400029870008298700082987000829870008D0
:1000500029870008298700082987000829870008C0
:10006000298700082987000829870008391D00080A
:100070002987000829870008491D0008591D000824
:10008000298700082987000829870008691D0008BA
:10009000791D0008891D0008991D0008A91D000888
:1000A00029870008AB1D0008298700082987000858
:1000B00029870008B31D0008B51D0008298700081E
:1000C0002987000829870008298700082987000850
:1000D00029870008BD1D0008298700082987000816
:1000E00029870008298700082987000800000000E8
:1000F0000000000000000000000000000000000000
:0C01000000000000000000005FF808F1A3
:1001100081F0004102E000BF83F0004330B54FEAB8
:1001200041044FEA430594EA050F08BF90EA020F25
:100130001FBF54EA000C55EA020C7FEA645C7FEAB8
:10014000655C00F0E2804FEA5454D4EB5555B8BFDB
:100150006D420CDD2C4480EA020281EA030382EA4C
:10016000000083EA010180EA020281EA0303362DDE
:1001700088BF30BD11F0004F4FEA01314FF4801CB1
:100180004CEA113102D0404261EB410113F0004FC3
:100190004FEA03334CEA133302D0524263EB43037A
:1001A00094EA050F00F0A780A4F10104D5F1200E18
:1001B0000DDB02FA0EFC22FA05F2801841F1000173
:1001C00003FA0EF2801843FA05F359410EE0A5F147
:1001D00020050EF1200E012A03FA0EFC28BF4CF078
:1001E000020C43FA05F3C01851EBE37101F000452E
:1001F00007D54FF0000EDCF1000C7EEB00006EEB3B
:100200000101B1F5801F1BD3B1F5001F0CD34908C4
:100210005FEA30004FEA3C0C04F101044FEA44521B
:1002200012F5800F80F09A80BCF1004F08BF5FEAA2
:10023000500C50F1000041EB045141EA050130BD82
:100240005FEA4C0C404141EB0101013C28BFB1F594
:10025000801FE9D291F0000F04BF01460020B1FADF
:1002600081F308BF2033A3F10B03B3F120020CDAB2
:100270000C3208DD02F1140CC2F10C0201FA0CF090
:1002800021FA02F10CE002F11402D8BFC2F1200CF5
:1002900001FA02F120FA0CFCDCBF41EA0C019040AB
:1002A000E41AA2BF01EB0451294330BD6FEA0404F4
:1002B0001F3C1CDA0C340EDC04F11404C4F12002DF
:1002C00020FA04F001FA02F340EA030021FA04F3F1
:1002D00045EA030130BDC4F10C04C4F1200220FA48
:1002E00002F001FA04F340EA0300294630BD21FA86
:1002F00004F0294630BD94F0000F83F4801306BF4C
:1003000081F480110134013D4EE77FEA645C18BF3F
:100310007FEA655C29D094EA050F08BF90EA020FD6
:1003200005D054EA000C04BF1946104630BD91EACE
:10033000030F1EBF0021002030BD5FEA545C05D1D1
:100340004000494128BF41F0004130BD14F5800410
:100350003CBF01F5801130BD01F0004545F0FE4184
:1003600041F470014FF0000030BD7FEA645C1ABFB9
:10037000194610467FEA655C1CBF0B46024650EAF0
:10038000013406BF52EA033591EA030F41F400211C
:1003900030BD00BF90F0000F04BF0021704730B5A2
:1003A0004FF4806404F132044FF000054FF0000177
:1003B00050E700BF90F0000F04BF0021704730B538
:1003C0004FF4806404F1320410F0004548BF40420D
:1003D0004FF000013EE700BF42004FEAE2014FEA62
:1003E00031014FEA02701FBF12F07F4393F07F4F3D
:1003F00081F06051704732F07F4208BF704793F040
:100400007F4F04BF41F40021704730B54FF4607452
:1004100001F0004521F000411CE700BF50EA010255
:1004200008BF704730B54FF000050AE050EA0102FE
:1004300008BF704730B511F0004502D5404261EB6E
:1004400041014FF4806404F132045FEA915C3FF4AF
:10045000D8AE4FF003025FEADC0C18BF03325FEA4C
:10046000DC0C18BF033202EBDC02C2F1200300FAFD
:1004700003FC20FA02F001FA03FE40EA0E0021FA22
:1004800002F11444BDE600BF70B54FF0FF0C4CF410
:10049000E06C1CEA11541DBF1CEA135594EA0C0FC2
:1004A00095EA0C0F00F0DEF82C4481EA030621EAFD
:1004B0004C5123EA4C5350EA013518BF52EA033538
:1004C00041F4801143F4801338D0A0FB02CE4FF0EA
:1004D0000005E1FB02E506F00042E0FB03E54FF01A
:1004E0000006E1FB03569CF0000F18BF4EF0010E12
:1004F000A4F1FF04B6F5007F64F5407404D25FEA0E
:100500004E0E6D4146EB060642EAC62141EA5551C0
:100510004FEAC52040EA5E504FEACE2EB4F1FD0C02
:1005200088BFBCF5E06F1ED8BEF1004F08BF5FEA80
:10053000500E50F1000041EB045170BD06F0004632
:1005400046EA010140EA020081EA0301B4EB5C04DF
:10055000C2BFD4EB0C0541EA045170BD41F48011D7
:100560004FF0000E013C00F3AB8014F1360FDEBFFC
:10057000002001F0004170BDC4F10004203C35DAD8
:100580000C341BDC04F11404C4F1200500FA05F35B
:1005900020FA04F001FA05F240EA020001F00042FC
:1005A00021F0004110EBD37021FA04F642EB060172
:1005B0005EEA430E08BF20EAD37070BDC4F10C049C
:1005C000C4F1200500FA04F320FA05F001FA04F260
:1005D00040EA020001F0004110EBD37041F100014C
:1005E0005EEA430E08BF20EAD37070BDC4F1200557
:1005F00000FA05F24EEA020E20FA04F301FA05F2BF
:1006000043EA020321FA04F001F0004121FA04F266
:1006100020EA020000EBD3705EEA430E08BF20EA36
:10062000D37070BD94F0000F0FD101F00046400070
:1006300041EB010111F4801F08BF013CF7D041EAF2
:10064000060195F0000F18BF704703F000465200F6
:1006500043EB030313F4801F08BF013DF7D043EAC7
:100660000603704794EA0C0F0CEA135518BF95EA7D
:100670000C0F0CD050EA410618BF52EA4306D1D104
:1006800081EA030101F000414FF0000070BD50EA23
:10069000410606BF1046194652EA430619D094EAAD
:1006A0000C0F02D150EA013613D195EA0C0F05D197
:1006B00052EA03361CBF104619460AD181EA0301EB
:1006C00001F0004141F0FE4141F470014FF00000A3
:1006D00070BD41F0FE4141F4780170BD70B54FF03E
:1006E000FF0C4CF4E06C1CEA11541DBF1CEA1355BE
:1006F00094EA0C0F95EA0C0F00F0A7F8A4EB0504A0
:1007000081EA030E52EA03354FEA013100F0888096
:100710004FEA03334FF0805545EA131343EA12635F
:100720004FEA022245EA111545EA10654FEA002614
:100730000EF000419D4208BF964244F1FD0404F5CD
:10074000407402D25B084FEA3202B61A65EB030529
:100750005B084FEA32024FF480104FF4002CB6EBE6
:10076000020E75EB030E22BFB61A754640EA0C0066
:100770005B084FEA3202B6EB020E75EB030E22BFA6
:10078000B61A754640EA5C005B084FEA3202B6EBE7
:10079000020E75EB030E22BFB61A754640EA9C00A6
:1007A0005B084FEA3202B6EB020E75EB030E22BF76
:1007B000B61A754640EADC0055EA060E18D04FEA34
:1007C000051545EA16754FEA06164FEAC30343EAD4
:1007D00052734FEAC2025FEA1C1CC0D111F4801FA1
:1007E0000BD141EA00014FF000004FF0004CB6E79A
:1007F00011F4801F04BF01430020B4F1FD0C88BF39
:10080000BCF5E06F3FF6AFAEB5EB030C04BFB6EB43
:10081000020C5FEA500C50F1000041EB045170BD36
:100820000EF0004E4EEA113114EB5C04C2BFD4EB63
:100830000C0541EA045170BD41F480114FF0000EE7
:10084000013C90E645EA060E8DE60CEA135594EA63
:100850000C0F08BF95EA0C0F3FF43BAF94EA0C0F66
:100860000AD150EA01347FF434AF95EA0C0F7FF4DB
:1008700025AF104619462CE795EA0C0F06D152EA2F
:1008800003353FF4FDAE1046194622E750EA410613
:1008900018BF52EA43067FF4C5AE50EA41047FF424
:1008A0000DAF52EA43057FF4EBAE12E74FF0FF3C89
:1008B00006E000BF4FF0010C02E000BF4FF0010C5A
:1008C0004DF804CD4FEA410C7FEA6C5C4FEA430CD3
:1008D00018BF7FEA6C5C1BD001B050EA410C0CBF22
:1008E00052EA430C91EA030F02BF90EA020F002084
:1008F000704710F1000F91EA030F58BF994208BFEB
:1009000090422CBFD8176FEAE37040F001007047A7
:100910004FEA410C7FEA6C5C02D150EA013C07D1FE
:100920004FEA430C7FEA6C5CD6D152EA033CD3D049
:100930005DF8040B704700BF8446104662468C4643
:100940001946634600E000BF01B5FFF7B7FF002876
:1009500048BF10F1000F01BD4DF808EDFFF7F4FF9F
:100960000CBF012000205DF808FB00BF4DF808ED2A
:10097000FFF7EAFF34BF012000205DF808FB00BF4D
:100980004DF808EDFFF7E0FF94BF012000205DF86F
:1009900008FB00BF4DF808EDFFF7CEFF94BF012024
:1009A00000205DF808FB00BF4DF808EDFFF7C4FF1D
:1009B00034BF012000205DF808FB00BF4FEA410C66
:1009C0007FEA6C5C02D150EA013C0AD14FEA430C49
:1009D0007FEA6C5C02D152EA033C02D14FF0000086
:1009E00070474FF0010070474FEA4102B2F1E04317
:1009F00024BFB3F5001CDCF1FE5C0DD901F0004C06
:100A00004FEAC0024CEA5070B2F1004F40EB830055
:100A100008BF20F00100704711F0804F21D113F181
:100A20003872BCBF01F00040704741F480114FEABA
:100A30005252C2F11802C2F1200C10FA0CF320FA43
:100A400002F018BF40F001004FEAC1234FEAD32360
:100A500003FA0CFC40EA0C0023FA02F34FEA4303CA
:100A6000CCE77FEA625307D150EA01331EBF4FF053
:100A7000FE4040F44000704701F0004040F0FE406E
:100A800040F40000704700BF80F0004002E000BF6B
:100A900081F0004142001FBF5FEA410392EA030F69
:100AA0007FEA226C7FEA236C6AD04FEA1262D2EBB3
:100AB0001363C1BFD218414048404140B8BF5B42B8
:100AC000192B88BF704710F0004F40F4000020F051
:100AD0007F4018BF404211F0004F41F4000121F067
:100AE0007F4118BF494292EA030F3FD0A2F10102B1
:100AF00041FA03FC10EB0C00C3F1200301FA03F1EF
:100B000000F0004302D5494260EB4000B0F5000F11
:100B100013D3B0F1807F06D340084FEA310102F1D0
:100B20000102FE2A51D2B1F1004F40EBC25008BF82
:100B300020F0010040EA03007047490040EB00004C
:100B4000013A28BFB0F5000FEDD2B0FA80FCACF14D
:100B5000080CB2EB0C0200FA0CF0AABF00EBC2507A
:100B600052421843BCBFD0401843704792F0000F68
:100B700081F4000106BF80F400000132013BB5E7BB
:100B80004FEA41037FEA226C18BF7FEA236C21D031
:100B900092EA030F04D092F0000F08BF0846704796
:100BA00090EA010F1CBF0020704712F07F4F04D164
:100BB000400028BF40F00040704712F100723CBF77
:100BC00000F50000704700F0004343F0FE4040F4A1
:100BD000000070477FEA226216BF08467FEA23635F
:100BE0000146420206BF5FEA412390EA010F40F44A
:100BF000800070474FF0000304E000BF10F0004396
:100C000048BF40425FEA000C08BF704743F096437C
:100C100001464FF000001CE050EA010208BF704797
:100C20004FF000030AE000BF50EA010208BF70471E
:100C300011F0004302D5404261EB41015FEA010C33
:100C400002BF84460146002043F0B64308BFA3F12B
:100C50008053A3F50003BCFA8CF2083AA3EBC2530D
:100C600010DB01FA02FC634400FA02FCC2F120022C
:100C7000BCF1004F20FA02F243EB020008BF20F063
:100C80000100704702F1200201FA02FCC2F12002C9
:100C900050EA4C0021FA02F243EB020008BF20EABE
:100CA000DC7070474FF0FF0C1CEAD0521EBF1CEAEC
:100CB000D15392EA0C0F93EA0C0F6FD01A4480EADA
:100CC000010C400218BF5FEA41211ED04FF00063C3
:100CD00043EA501043EA5111A0FB01310CF00040EF
:100CE000B1F5000F3EBF490041EAD3715B0040EA15
:100CF000010062F17F02FD2A1DD8B3F1004F40EBE5
:100D0000C25008BF20F00100704790F0000F0CF0B7
:100D1000004C08BF49024CEA502040EA51207F3A7B
:100D2000C2BFD2F1FF0340EAC250704740F4000056
:100D30004FF00003013A5DDC12F1190FDCBF00F047
:100D400000407047C2F10002410021FA02F1C2F1F5
:100D5000200200FA02FC5FEA310040F1000053EA91
:100D60004C0308BF20EADC70704792F0000F00F0DF
:100D7000004C02BF400010F4000F013AF9D040EAE5
:100D80000C0093F0000F01F0004C02BF490011F479
:100D9000000F013BF9D041EA0C018FE70CEAD15377
:100DA00092EA0C0F18BF93EA0C0F0AD030F0004CF7
:100DB00018BF31F0004CD8D180EA010000F00040AB
:100DC000704790F0000F17BF90F0004F084691F069
:100DD000000F91F0004F14D092EA0C0F01D14202A3
:100DE0000FD193EA0C0F03D14B0218BF084608D16C
:100DF00080EA010000F0004040F0FE4040F40000B6
:100E0000704740F0FE4040F4400070474FF0FF0C48
:100E10001CEAD0521EBF1CEAD15392EA0C0F93EA8F
:100E20000C0F69D0A2EB030280EA010C49024FEAE1
:100E3000402037D04FF0805343EA111143EA10139A
:100E40000CF000408B4238BF5B0042F17D024FF452
:100E5000000C8B4224BF5B1A40EA0C00B3EB510F2D
:100E600024BFA3EB510340EA5C00B3EB910F24BF16
:100E7000A3EB910340EA9C00B3EBD10F24BFA3EB9B
:100E8000D10340EADC001B0118BF5FEA1C1CE0D163
:100E9000FD2A3FF650AF8B4240EBC25008BF20F016
:100EA000010070470CF0004C4CEA50207F32C2BF6A
:100EB000D2F1FF0340EAC250704740F400004FF007
:100EC0000003013A37E792F0000F00F0004C02BF38
:100ED000400010F4000F013AF9D040EA0C0093F002
:100EE000000F01F0004C02BF490011F4000F013B5C
:100EF000F9D041EA0C0195E70CEAD15392EA0C0FC4
:100F000008D142027FF47DAF93EA0C0F7FF470AFFB
:100F1000084676E793EA0C0F04D14B023FF44CAF3E
:100F200008466EE730F0004C18BF31F0004CCAD1D3
:100F300030F000427FF45CAF31F000437FF43CAF0F
:100F40005FE700BF4FF0FF3C06E000BF4FF0010C31
:100F500002E000BF4FF0010C4DF804CD4FEA400213
:100F60004FEA41037FEA226C18BF7FEA236C11D05D
:100F700001B052EA530C18BF90EA010F58BFB2EB10
:100F8000030088BFC81738BF6FEAE17018BF40F090
:100F9000010070477FEA226C02D15FEA402C05D144
:100FA0007FEA236CE4D15FEA412CE1D05DF8040BC9
:100FB000704700BF844608466146FFE70FB5FFF75C
:100FC000C9FF002848BF10F1000F0FBD4DF808ED14
:100FD000FFF7F4FF0CBF012000205DF808FB00BF05
:100FE0004DF808EDFFF7EAFF34BF012000205DF85F
:100FF00008FB00BF4DF808EDFFF7E0FF94BF0120AC
:1010000000205DF808FB00BF4DF808EDFFF7D2FFA8
:1010100094BF012000205DF808FB00BF4DF808EDEB
:10102000FFF7C8FF34BF012000205DF808FB00BFB8
:101030004FEA40024FEA41037FEA226C02D15FEAA5
:10104000402C08D17FEA236C02D15FEA412C02D107
:101050004FF0000070474FF0010070474FEA400228
:10106000B2F1FE4F0FD34FF09E03B3EB12620DD9D6
:101070004FEA002343F0004310F0004F23FA02F040
:1010800018BF404270474FF00000704712F1610FE7
:1010900001D1420205D110F0004008BF6FF00040BE
:1010A00070474FF00000704700F1340191E83800BC
:1010B0009C46A6464CF8045D90E8FF0FE54600BD4F
:1010C00090EC210B704700BF80EC210B704700BFF4
:1010D00090EC200B704700BF80EC200B704700BFE6
:1010E000D0EC200B704700BFC0EC200B704700BF56
:1010F000F0EC0201F0EC0211F0EC0221F0EC023114
:10110000F0EC0241F0EC0251F0EC0261F0EC027103
:10111000F0EC0281F0EC0291F0EC02A1F0EC02B1F3
:10112000F0EC02C1F0EC02D1F0EC02E1F0EC02F1E3
:10113000704700BFE0EC0201E0EC0211E0EC02219C
:10114000E0EC0231E0EC0241E0EC0251E0EC026143
:10115000E0EC0271E0EC0281E0EC0291E0EC02A133
:10116000E0EC02B1E0EC02C1E0EC02D1E0EC02E123
:10117000E0EC02F1704700BFB0FC0181B0FC0191CE
:10118000B0FC01A1B0FC01B1704700BFA0FC01811F
:10119000A0FC0191A0FC01A1A0FC01B1704700BF1F
:1011A000EC4600B52DE900502DE9FF1F4FF000037C
:1011B0002DE90C0001A907F0E9FFDDF840E012B0CD
:1011C000704700BFEC4600B52DE900502DE9FF1F28
:1011D0004FF000032DE90C0001A908F017F8DDF825
:1011E00040E012B0704700BFEC4600B52DE900505A
:1011F0002DE9FF1F4FF000032DE90C0001A908F0B5
:1012000025F8DDF840E012B0704700BFEC4600B5AD
:101210002DE900502DE9FF1F4FF000032DE90C00D0
:1012200001AB07F0E7FFDDF840E012B0704700BF08
:10123000EC4600B52DE900502DE9FF1F4FF00003EB
:101240002DE90C0001AA08F057F8DDF840E012B0D3
:10125000704700BF80EA010C1CF0030F37D110F07B
:10126000030C20F0030021F0030150F8042B08BF09
:1012700051F8043B0ED08CF0030C6FF07F434FEA23
:10128000CC0C23FA0CFC51F8043B42EA0C0243EA72
:101290000C0300BFA2F1013C9A4201BF2CEA020CF0
:1012A0001CF0803F50F8042B51F8043BF2D04FEA79
:1012B00002604FEA1222012828BFB0EB036F08BF7B
:1012C0001B0AF4D003F0FF03000EC01A704710F0A1
:1012D000030F0AD010F8012B11F8013B012A28BF97
:1012E0009A42F4D0A2EB030070474DF8045D50F829
:1012F000042B01F0030521F0030151F8043B022DFA
:1013000026D04DD822F07F45B5EB132FA2F1013C3A
:101310002CEA020C0DD11CF0803C08BF51F8043BB4
:101320000AD185EA0205B5EB036F0CD150F8042B06
:10133000E8E74FEA13235BE03CF07F4C54D10B7895
:101340004FEA126554E04FEA126503F0FF034FE0E5
:101350004FEA0245A2F1013C4FEA15452CEA020C86
:10136000B5EB134F18D11CF0803C08BF51F8043B7B
:1013700007D185EA0205B5EB034F09D150F8042BDC
:10138000E6E75FEA0C4C2FD10B884FEA12452FE0BD
:101390004FEA03434FEA12454FEA134328E000BFE8
:1013A00002F0FF05B5EB136FA2F1013C2CEA020C31
:1013B0000DD11CF0803C08BF51F8043B0AD185EAEE
:1013C0000205B5EB032F0AD150F8042BE8E74FEAEA
:1013D00013630DE012F0FF0F06D051F8043B4FEA03
:1013E000122523F07F4303E04FF0000020BC70473C
:1013F00005F0FF0203F0FF00012828BF904204BF60
:101400002D0A1B0AF4D0A2EB000020BC704700BFDD
:10141000844641EA000313F0030349D1403A23D341
:101420000B6803604B6843608B688360CB68C36064
:101430000B6903614B6943618B698361CB69C3614C
:101440000B6A03624B6A43628B6A8362CB6AC36234
:101450000B6B03634B6B43638B6B8363CB6BC3631C
:1014600040304031403ADBD230320BD30B6803605E
:101470004B6843608B688360CB68C3601030103169
:10148000103AF3D20C3205D351F8043B40F8043B38
:10149000043AF9D2043208D0D2071CBF11F8013B3C
:1014A00000F8013B01D30B8803806046704700BF02
:1014B000082A13D38B07B1D010F00303AED0C3F1C9
:1014C0000403D21ADB071CBF11F8013B00F8013BF3
:1014D000A4D331F8023B20F8023B9FE7043AD9D36A
:1014E000013A11F8013B00F8013BF9D20B78037087
:1014F0004B7843708B788370604670474FEA4102A7
:1015000012F5001215D211D56FF47873B3EB625255
:1015100012D94FEAC12343F0004343EA505311F07C
:10152000004F23FA02F018BF404270474FF000000E
:10153000704750EA013005D111F0004008BF6FF04C
:10154000004070474FF00000704700BF4A0011D2C2
:1015500012F5001211D20DD56FF47873B3EB62520D
:101560000ED44FEAC12343F0004343EA505323FA19
:1015700002F070474FF00000704750EA013002D18E
:101580004FF0FF3070474FF0000070470348044BA6
:10159000834202D0034B03B118477047080700206D
:1015A00008070020000000000548064B1B1AD90F51
:1015B00001EBA301491002D0034B03B11847704758
:1015C00008070020080700200000000010B5064CA6
:1015D000237843B9FFF7DAFF044B13B10448AFF3A4
:1015E00000800123237010BD0807002000000000C8
:1015F000E41E010808B5054B1BB105490548AFF3CA
:101600000080BDE80840FFF7CFBF00BF000000002A
:101610000C070020E41E010810B584B000230193DC
:10162000029303931D481E4A02604FF48072826049
:101630000122027303754FF46022C26143600223EA
:10164000036102F07FFE00BB00230193012302939C
:101650000723039301A9114802F0CCFCC0B9012370
:101660000193022302930723039301A90B4802F07D
:10167000C1FC80B9094C204602F0E8FE022209496B
:10168000204602F09BFD04B010BD00F05DFADBE7E0
:1016900000F05AFAE3E700F057FAEBE7680700209A
:1016A000002401409807002010B586B00023029363
:1016B00003930493059302681E4B9A4201D006B02F
:1016C00010BD044603F56C439A6942F400729A61B6
:1016D0009A6902F400720092009A9A6942F0040238
:1016E0009A619B6903F004030193019B0323029316
:1016F000039302A9104803F077FE1048104B0360D3
:101700000023436083608023C3604FF480730361D0
:101710004FF480634361202383614FF44053C361DE
:1017200003F07EFB18B9054B23625C62C7E700F04B
:101730000BFAF8E7002401400008014024070020CC
:10174000080002400000000008B5214B5888FFF750
:1017500051FA01461F48FFF759FB4FF07E51FFF742
:1017600097F91D49FFF79EFA1C49FFF74FFBFEF75B
:1017700033FE07F09BF90EA3D3E90023FEF784FEA6
:101780000DA3D3E90023FEF7C9FC02460B460CA1CA
:10179000D1E90001FEF7A2FFFFF726F9FEF71CFED4
:1017A00009A3D3E90023FEF7B7FCFFF71DF908BD35
:1017B0000000006066A272400000000000FEAA4027
:1017C00000000080B86F2F41666666666612714041
:1017D0009807002000F07F4500404E4500401C4621
:1017E00010B58AB02248234B0360042343600023D2
:1017F0008360C3604FF4802202614FF400124261A3
:101800000376437601228276C3760377437702F02C
:101810009DFE30BB0023059306930122079200939F
:10182000019302930393049308920E23099369464C
:101830000F4802F031FFB8B90D4C204602F0B2FF5C
:101840000D49204603F005F90C4B5A680C4B1A6001
:1018500000225A60DA609A60082119611A750AB08C
:1018600010BD00F071F9D5E700F06EF9E4E700BFB4
:10187000C8070020006400407F8F0300B0140020E0
:101880001808002030B587B0002302930393049317
:10189000059302682A4B9A4201D007B030BD03F588
:1018A000D633DA6942F00072DA61DA6902F0007266
:1018B0000092009A9A6942F008029A619B6903F0CB
:1018C00008030193019B4FF4807302931D4D02A9FD
:1018D000284603F089FD4FF400730293022303931B
:1018E0000324059402A9284603F07EFD164A536896
:1018F00023F4C04343F0E06343F480435360002289
:101900002146132003F040FA132003F04DFA002281
:101910002146142003F038FA142003F045FA00227F
:101920002146152003F030FA152003F03DFA00227D
:101930002146162003F028FA162003F035FAACE70A
:1019400000640040000C01400000014008B50A4658
:10195000044B0146044802F053FF00B908BD00F0F3
:10196000F3F8FBE7F0070020C807002008B50E4B8E
:101970000E4A002102F0C2FF90B90C4B1868C3094F
:10198000C0F3C71200F07F0022B1094A5268DBB2EF
:101990009A4204D1054B1A69034906F0DBFA08BDE7
:1019A00000F0D2F8E9E700BFF4070020FC070020B0
:1019B000B014002000B583B0124B5A6942F0010206
:1019C0005A615B6903F001030193019B00221146F8
:1019D0000B2003F0D9F90B2003F0E6F900220321D4
:1019E0000E2003F0D1F90E2003F0DEF900220321CE
:1019F0000F2003F0C9F90F2003F0D6F903B05DF80A
:101A000004FB00BF001002402DE9F04389B0002420
:101A10000494059406940794464B9A6942F0100288
:101A20009A619A6902F010020092009A9A6942F053
:101A300020029A619A6902F020020192019A9A6941
:101A400042F004029A619A6902F004020292029A38
:101A50009A6942F008029A619B6903F008030393B4
:101A6000039BDFF8D49022464FF4C041484603F070
:101A7000D0FD324E22463C21304603F0CAFDDFF84D
:101A8000C08022460221404603F0C3FD01224FF4EC
:101A90000041304603F0BDFD4FF4C04304930125DF
:101AA000059506940227079704A9484603F09CFC75
:101AB0003C230493059506940323079304A9304619
:101AC00003F092FC802304931E4B0593069404A913
:101AD000304603F089FC04950594069404A9404619
:101AE00003F082FC049705950694079704A94046E5
:101AF00003F07AFC41F2040304930594069504A9CB
:101B0000404603F071FC4FF400430493059506949E
:101B1000079704A9304603F067FC4FF4E063049391
:101B20000594069504A9304603F05EFC09B0BDE8B3
:101B3000F08300BF00100240001001400008014087
:101B4000000C01400000311072B6FEE700B595B000
:101B5000282200210DEB020008F058FB002305931A
:101B600006930793089309930193029303930493B5
:101B700001220A924FF480330B930E9202221192AB
:101B800012934FF4801313930AA803F05FFDC8B9B2
:101B90000F23059302210691002307934FF48062DF
:101BA0000892099305A803F097FF68B902230193EF
:101BB0004FF40043039301A804F06AF830B915B05C
:101BC0005DF804FBFFF7C0FFFFF7BEFFFFF7BCFFA8
:101BD00008B502F099F9FFF7B9FFFFF715FFFFF716
:101BE000E9FEFFF719FD00F0A1FBFFF7F9FD00F09A
:101BF0000BF800F0C3FA00F087F900F0DBF900F011
:101C000049F906F0B3F8FEE708B51048104B036039
:101C10004FF482734360002383604FF40062C2601C
:101C200002220261012242614FF40072826110229D
:101C3000C2610362436283620A23C36204F0AAF9A9
:101C400000B908BDFFF780FFFBE700BF30080020A8
:101C50000030014010B586B0002302930393049333
:101C6000059302681A4B9A4201D006B010BD03F5E5
:101C700060439A6942F480529A619A6902F48052F0
:101C80000092009A9A6942F008029A619B6903F0F7
:101C900008030193019B2823029302230393032348
:101CA00005930C4C02A9204603F09EFB10230293DF
:101CB00000230393049302A9204603F095FB064AF0
:101CC000536843F0E06343F001035360CDE700BF86
:101CD00000300140000C01400000014082B00E4B7A
:101CE0009A6942F001029A619A6902F00102009237
:101CF000009ADA6942F08052DA61DB6903F08053BE
:101D00000193019B054A536823F0E06343F000739D
:101D1000536002B0704700BF001002400000014055
:101D2000FEE7FEE7FEE7FEE7FEE770477047704715
:101D300008B502F0FBF808BD08B5024803F04EF9FB
:101D400008BD00BF2407002008B5024803F046F98B
:101D500008BD00BFAC09002008B5024803F03EF9F9
:101D600008BD00BFF009002008B5024802F08FFE50
:101D700008BD00BFC807002008B5024802F087FE72
:101D800008BD00BFC807002008B5024802F07FFE6A
:101D900008BD00BFC807002008B5024802F077FE62
:101DA00008BD00BFC8070020704708B505F038FF20
:101DB00008BD704708B505F079FF08BDF0B583B0E0
:101DC000174B1B681A6812F0100F04D1144805F065
:101DD000BFF903B0F0BD002601961A6801925B6856
:101DE0000193019B0E4F384605F0CFF80D4B1B6851
:101DF0005B68C3F18003DBB20B4C237021780B4D81
:101E00000B4B1B682846984722783146284608F035
:101E1000FDF9267080222946384605F011FBD5E7EA
:101E2000340A0020F0090020FC0A00207C0A00206F
:101E3000780A00200120704708B507F007FF162335
:101E400003604FF0FF3008BD08B54FF0FF31FFF7DA
:101E5000F3FFFEE708B503460B4A126842B10A4A8F
:101E6000106803446A46934206D8074A136008BDC7
:101E7000054A06491160F2E707F0E8FE0C2303600B
:101E80004FF0FF30F3E700BF880800200018002063
:101E90007047000000B587B00023029303930493BA
:101EA0000593009301931648164A02604722426048
:101EB000836042F20F72C2600361436180238361D9
:101EC00004F04AFB90B94FF48053029302A90C48E6
:101ED00004F0EEFC68B900230093019369460848BA
:101EE00004F040FE40B907B05DF804FBFFF72CFE9C
:101EF000E9E7FFF729FEEEE7FFF726FEF3E700BF6D
:101F000064090020002C014000B58DB00023079328
:101F1000089309930A930B930593069301930293F5
:101F2000039304932148224A02604722426083605F
:101F30004FF6FF72C2600361836104F00DFB28BBA2
:101F40001A4804F061FB20BB042307935023089335
:101F5000002309930B9307A9144804F05DFDD8B939
:101F600000230593069305A9104804F0FBFDB0B9C2
:101F700000220192012302930392049201A90B48CB
:101F800004F030FC70B90DB05DF804FBFFF7DCFD28
:101F9000D6E7FFF7D9FDD7E7FFF7D6FDE0E7FFF774
:101FA000D3FDE5E7FFF7D0FDEDE700BFD408002043
:101FB0000004004000B587B000230293039304930C
:101FC0000593009301931548154A02604722426029
:101FD00083603122C26003618023836104F0BCFA14
:101FE00090B94FF48053029302A90C4804F060FCAE
:101FF00068B90023009301936946084804F0B2FDD4
:1020000040B907B05DF804FBFFF79EFDE9E7FFF775
:102010009BFDEEE7FFF798FDF3E700BF8C0800207B
:102020000008004000B589B000230493059306938F
:1020300007930368294A934208D0294A934218D04B
:10204000284A934237D009B05DF804FB264B9A69C1
:1020500042F400629A619B6903F400630093009B61
:1020600000220521192002F08FFE192002F09CFEAB
:10207000E9E71D4BDA6942F00202DA61DA6902F03F
:1020800002020192019A9A6942F004029A619B69E4
:1020900003F004030293029B4023049304A9134812
:1020A00003F0A2F9002211461D2002F06DFE1D2052
:1020B00002F07AFEC7E70C4BDA6942F00402DA61FB
:1020C000DB6903F004030393039B002211461E20E7
:1020D00002F05AFE1E2002F067FEB4E7002C014019
:1020E00000040040000800400010024000080140C9
:1020F0000368B3F1804F00D0704782B003F504331A
:10210000DA6942F00102DA61DB6903F0010301934D
:10211000019B02B07047000000B587B00023029316
:102120000393049305930368B3F1804F02D007B083
:102130005DF804FB03F504339A6942F008029A61E2
:102140009B6903F008030193019B4FF440630293E2
:10215000022303930323059302A9064803F044F9DD
:10216000054A536823F4407343F0E06343F400737B
:102170005360DCE7000C01400000014010B58AB05C
:102180000023089309930193029303930493059307
:102190000693079320484FF08042026043608360BB
:1021A00040F2FF32C2600361836104F001FA38BB80
:1021B00000230893099308A9174804F0D3FC10BB27
:1021C000602301930023029303930593082201A93E
:1021D000114804F073FAC8B90C2201A90E4804F0A2
:1021E0006DFAB0B90C4C0821204604F04DFC0C21CE
:1021F000204604F049FC2046FFF78EFF0AB010BDD0
:10220000FFF7A2FCD4E7FFF79FFCD9E7FFF79CFCA0
:10221000E2E7FFF799FCE5E71C090020F0B587B07D
:10222000002302930393049305930268354B9A426B
:1022300001D007B0F0BD044603F558439A6942F453
:1022400080429A619A6902F480420092009A9A69E7
:1022500042F008029A619B6903F008030193019B15
:10226000402302930223039303230593264F02A9DD
:10227000384603F0B9F880260296002503950495A8
:1022800002A9384603F0B0F8204A536843F0E063EF
:1022900043F0040353601E481E4B03604560856095
:1022A000C6600561456185614FF48053C36102F0EA
:1022B000B7FD00BB164BA3635C621748174B036066
:1022C00010234360002383608022C2600361436166
:1022D00083614FF48053C36102F0A2FD70B90E4BCD
:1022E00063635C6200220321252002F04DFD25205E
:1022F00002F05AFD9DE7FFF727FCDBE7FFF724FC20
:10230000EDE700BF00380140000C01400000014033
:10231000F009002058000240AC09002044000240AF
:10232000014B1860704700BF780A002010B51348B1
:10233000134B03604FF4E133436000238360C360B9
:1023400003610C2242618361C36104F011FD88B90D
:102350000A4C2268D36843F01003D360204605F08E
:1023600037F90848FFF7DCFF80220749204605F0CF
:1023700067F810BDFFF7E8FBEAE700BF340A00206A
:1023800000380140AD8500087C0A00207047704786
:1023900070477047704710B5044603685B699847FB
:1023A00023689B692046984710BD000038B5044655
:1023B000C1F30901818001F58073C3F309034381EF
:1023C0002E4D35F91330838135F911C0A0F806C0C0
:1023D00082EAE27EAEEBE27E41F2DB3202FB0EFEEF
:1023E000CEF30B3E83EAE371A1EBE37189B20EFBFE
:1023F00001F1C1F30F31C1818CEAEC72A2EBEC72F6
:1024000092B20EFB02F2C2F30F32028103681B6923
:102410009847B4F90C30002B10DD23681B6A0022AA
:10242000012120469847B4F90630002B16DD2368B9
:102430005B6A002201212046984738BD002B06DB4D
:1024400023681B6A0122114620469847EBE7236860
:102450001B6A0122002120469847E4E7002B06DB97
:1024600023685B6A0122114620469847E5E7236806
:102470005B6A0122002120469847DEE77C1F0108A5
:1024800008B50368DB69984708BD38B504460025E0
:10249000C581058103681B692A4629469847236838
:1024A0001B6A2A4629462046984723685B6A2A46C3
:1024B00029462046984738BD10B504460021C18101
:1024C000018103681B690A46984723681B6A012239
:1024D00011462046984723685B6A01221146204630
:1024E000984710BD0023C3600161704710B4C368F2
:1024F0001944C16003694468226891FBF2F21344F5
:102500000361236891FBF3F203FB1211C16010BC5D
:10251000704738B504460D460369CA1A03D12161D4
:102520002369236038BD002A15DD002B09DB816893
:10253000FFF7DCFF2369AB42F2DB0023E360256198
:10254000EEE78168FFF7D2FF2369002BE8DB002369
:10255000E3602361E4E7002AE2DA002B0ADD816808
:102560004942FFF7C3FF2369002BD9DC0023E36056
:102570002361D5E781684942FFF7B8FF2369AB4281
:10258000CEDC0023E3602561CAE78160704708B5AF
:102590004368D3F8B4305969FFF7F7FF08BD81608D
:1025A000704708B54368D3F8B4301969FFF7F7FFEF
:1025B00008BD0023C3600161704710B4C3681944AB
:1025C000C16003694468226891FBF2F2134403611D
:1025D000236891FBF3F203FB1211C16010BC70473A
:1025E00038B504460D460369CA1A03D1216123692F
:1025F000236038BD002A15DD002B09DB8168FFF759
:10260000DCFF2369AB42F2DB0023E3602561EEE7E8
:102610008168FFF7D2FF2369002BE8DB0023E3602A
:102620002361E4E7002AE2DA002B0ADD81684942EF
:10263000FFF7C3FF2369002BD9DC0023E36023618C
:10264000D5E781684942FFF7B8FF2369AB42CEDC8A
:102650000023E3602561CAE710B504460846E1603F
:102660002161FEF7CBFA01464FF07C50FEF7CEFB1E
:10267000606110BD10B504468368D3F8B4301969A1
:10268000FFF7EAFFA368D3F8B4301B69034A82FB63
:102690000312DB17C3EBA213A36110BDD34D62106D
:1026A0000023C361026243628162704710B4436ACF
:1026B00019444162836A8468226891FBF2F21344F0
:1026C0008362236891FBF3F203FB1211416210BC99
:1026D000704710B4C3691944C161036A84682268F1
:1026E00091FBF2F213440362236891FBF3F203FBC4
:1026F0001211C16110BC7047F8B50446836ACD1A47
:102700002FD1036A826951428B4206DB934204DC7B
:102710000023C3610362436203E0002B0ADC002B49
:1027200014DB216A2046FFF7C1FFA36A2360236AF6
:102730006360F8BD216949422046FFF7CAFF236A5A
:10274000002BEEDC0023E3612362EAE721692046E7
:10275000FFF7BFFF236A002BE3DB0023E361236263
:10276000DFE7066A56B9002D03DDC168FFF7B1FF48
:10277000D7E7C1684942FFF7ACFFD2E7002D43DD40
:10278000002E41DD8368D3F8B430DF68BE4230DC10
:102790003046FEF733FA0146FEF784FA6169FEF728
:1027A00081FAFEF75BFC85EAE571A1EBE5718842F1
:1027B00013DABE42B5DAE1682046FFF78AFF216AE4
:1027C000A368D3F8B420D2689142AADB0022E26168
:1027D000D3F8B430DB682362A3E72169494220467D
:1027E000FFF777FF236A002B9BDC0023E361236262
:1027F00097E701694942FFF76CFF236A002B90DCE1
:102800000023E36123628CE7002D0FDB002D88DDC0
:10281000002E86DA21692046FFF75BFF236A002B32
:10282000FFF67FAF0023E36123627AE7002E0EDB21
:10283000002EEBDD216949422046FFF74AFF236A5B
:10284000002B3FF76EAF0023E361236269E7A368C3
:10285000D3F8B430DF687F42BE4235DB3046FEF746
:10286000CDF90146FEF71EFA6169FEF71BFAFEF785
:10287000F5FB85EAE571A1EBE571814218DDBE4209
:102880007FF74FAFE16849422046FFF722FF216AF8
:10289000A268D2F8B430DB685B4299423FF741AF9F
:1028A0000023E361D2F8B430DB685B42236238E78F
:1028B00021692046FFF70DFF236A002BFFF631AF99
:1028C0000023E36123622CE721692046FFF701FF23
:1028D000236A002BFFF625AF0023E361236220E784
:1028E000C16001614161C261704710B4C268026198
:1028F000C1608369A1EB020C82681468C269C2EBF3
:10290000821204FB0C22134483619A11C26103F00A
:102910003F03836141610160426010BC7047C16048
:1029200070470023436103778362C262036341639C
:10293000704710B4836A19448162C36A846822684C
:1029400091FBF2F21344C362236891FBF3F203FBA1
:102950001211816210BC704710B4036B19440163FB
:10296000436B8468226891FBF2F21344436323684B
:1029700091FBF3F203FB1211016310BC70472DE9C8
:10298000F84304460D461646036A934233D04FF08F
:102990000008C4F8148026626562D4F82C9009EB14
:1029A0000600FEF72BF90746A6EB0900FEF726F90D
:1029B00001463846FEF776F90646636BED1A680065
:1029C000FEF71CF901463046FEF720FAFEF746FBFB
:1029D000206184F81C80237F002B38D0E36AEBB998
:1029E000A362E16A2046FFF7B7FF636B2360E36AE7
:1029F0006360BDE8F883436A8B42C8D1426983694A
:102A00004FF47A7101FB03F39A4202DB012303774F
:102A1000E1E783685B681A444261DCE7002B0BDD69
:102A2000E16849422046FFF784FFE36A002BD8DCC7
:102A30000023A362E362D4E7E1682046FFF779FF51
:102A4000E36A002BCDDB0023A362E362C9E72169BF
:102A50002046FFF76EFFC4E738B504460D4683688D
:102A6000D3F8B4301969FFF75AFFA56138BD10B526
:102A70000446C0F8B4100830FFF789FD04F11C00CB
:102A8000FFF78FFD04F13000FFF7F4FDC82104F1DA
:102A90007C00FFF7E1FF10BDC0F844117047C0F89B
:102AA0004811704710B503460A46016300290CDD42
:102AB000816A80684068014459659968D1F8480185
:102AC00001684C68596DA04710BD002902DB816A7E
:102AD0004165F2E7816A80684068091A5965ECE748
:102AE00010B503681A695A61C2690368891A1961C5
:102AF00003681A69B2F5801F02DD4FF480121A6173
:102B000003681A6912F5801F01DA264A1A61036800
:102B10005A68196901FB02F29A6103685A6A996856
:102B20001C6904FB01225A620268536A9B12936279
:102B300003685A6A996AA2EB81225A620368DA69C9
:102B4000996A0A44DA610168CC6983685A69930218
:102B5000B4EB822F1CDDCB610368DA6819695C690C
:102B6000091B01FB02F21A6202689369D1690B44E6
:102B7000116A0B449B12D3620268D16A83685B6955
:102B800099420ADDD3620368D96AFFF78BFF10BD53
:102B90005B429C42E0DACB61DEE75B429942F2DACB
:102BA000D362F0E70000F0FF38B5846A0368091BC0
:102BB00019640368196CB1F5486F02DD4FF4486180
:102BC00019640368196C11F5486F01DA3149196409
:102BD000C369D21A0368D2115A6403685A6CB2F5F9
:102BE0007A6F02DD4FF47A625A6403685A6C12F508
:102BF0007A6F01DA284A5A6403681A6B196C01FB70
:102C000002F29A640368596D9C6B5A6B5D6C05FB0C
:102C100002F21D6C05FB0422114459650268536DD4
:102C2000DB11936503685A6D996DA2EBC1125A6569
:102C30000368DA6C996D0A44DA640168CC6C8368C5
:102C40005A699302B4EB822F1ADDCB640368DA6B06
:102C5000596C01FB02F21A650268936CD16C0B444B
:102C6000116D0B449B12D3650268D16D83685B695B
:102C700099420ADDD3650368D96DFFF713FF38BDAC
:102C80005B429C42E2DACB64E0E75B429942F2DAD3
:102C9000D365F0E780F3FFFF60F0FFFF017170473D
:102CA0008368DB680B444363704700002DE9F84FED
:102CB00005460F46164644690C1BD0F80880D8F824
:102CC0000C301C44002CB8BF6442D8F81C00FDF73F
:102CD00095FF81463146FDF7E5FF83463146FDF716
:102CE000E1FF4FF07A51FDF7DDFF82462046FDF708
:102CF00085FF04465146FEF791F950B1194B5B69C7
:102D0000C8F8183039462846FFF7CAFF0020BDE84A
:102D1000F88F31463046FDF7C5FF06464FF081413A
:102D20002046FDF7BFFF4946FEF770F801463046E2
:102D3000FDF7AEFE05F024FE01464846FDF7B2FF62
:102D400001465846FDF7A4FE4FF07C51FDF7AAFF5F
:102D5000FEF784F9C8F8180039462846FFF7A0FFA7
:102D60000120D4E7B014002083689B695A428A424C
:102D700002DC8B4200DB8163704738B571B1C268F9
:102D80008568E868101AFDF739FF0446A868FDF762
:102D900035FF01462046FEF739F838BD426985689F
:102DA000E868101AFDF72AFF0446A868FDF726FF19
:102DB00001462046FEF72AF8EFE738B50446C06919
:102DC000FDF71CFF0546A3689868FDF717FF01464D
:102DD0002846FEF71BF838BD08B5006BFDF70EFF5F
:102DE0000149FEF713F808BD00007A4483685B6967
:102DF0008B4201DAC36370475B428B4201DDC363E0
:102E00007047C163704700238365C371704700003A
:102E1000002813DB314B98425DDD314B98423CDAA0
:102E2000A0F5C330A0384FF4837303FB00F0001506
:102E3000B0F5D77F16DD4FF4D77013E0294B9842D9
:102E400045DAA3F59213A3F5786398420BDB00F5FE
:102E5000C330A0304FF4837303FB00F0001510F56E
:102E6000D77F36DB7047204B98420BDB00F59E1076
:102E700000F5B150C0EBC000C0EB00100015A0F58C
:102E80009670ECE700F5061000F58E50342303FB36
:102E900000F00015A0F5C370E1E7144B98420BDA7F
:102EA000A0F59E10A0F5B150C0EBC000C0EB001023
:102EB000001500F59670BBE7A0F50610A0F58E5042
:102EC000342303FB00F0001500F5C370B0E70020C9
:102ED0007047074870470020704700BF9F86010079
:102EE00020D613006179FEFF416EDEFFC091210004
:102EF00052FEFFFF274B93F83430002B48D0254B70
:102F00001B7B0371002343718371C36003614361C1
:102F100083610362C36143628362C3628268D26871
:102F200042638363C36380F8403080F84130436478
:102F30008364C36480F8503080F8513080F8523098
:102F4000436503638365C371C36580F860300268BD
:102F5000136102685361026893610268D361026879
:102F6000136202685362026893620268D362026865
:102F7000136402685364026893640268D36402684D
:102F8000136502685365026893650268D3657047EC
:102F90000023B6E7B014002043698268916893FB70
:102FA000F1F001FB1033D360704701607047026895
:102FB00000235362026893620268D361026853651A
:102FC000026893650268D3647047000038B5044610
:102FD000994B1B78002B40F0AD80D0F84031DA6877
:102FE0001A61D0F84421D0F84031D288DA60D0F8A4
:102FF0004021D36811695B1A8168B3EB610F40F31C
:10300000C0805B1A51699161D4F840114A691A4431
:103010004A61D4F84021116A53699069181AD4F8AA
:103020008850D369C3EB431305FB00331944116285
:10303000D4F84021136A5B11D361D4F840311A6A85
:10304000D969A2EB41121A62D4F84051E869FFF73E
:10305000DFFE6862D4F840315A69596A0A449A62BC
:10306000D4F840315A6C996A521ADA62D4F8403175
:10307000DA7952B993F850303BB9D4F84401036877
:103080009B689847002840F08380D4F84001FFF700
:103090008EFFD4F8402100235365D4F840211363F8
:1030A000D4F8480103689B689847D4F840315979AF
:1030B0001A79914205D05A71D4F84031012283F82F
:1030C0005220D4F84021916BA369994240F3A88023
:1030D0009363D4F84021D16B6369994240F3A68091
:1030E000D363D4F8403193F8502012B193F84020C4
:1030F0002AB193F851202AB193F8412012B9012244
:1031000083F85220D4F8403193F85220002A40F03E
:103110009580D4F840114B79013B072B00F2ED80EC
:10312000DFE813F0DC002B0136014101520162019E
:103130006D017801C268816801EBD1735810B2EB60
:10314000630F16DAD4F84431DB880244934200DD81
:103150005B1AD4F84021D360D4F840211361D4F82D
:1031600040215361D4F840219361334B00221A70FF
:1031700038BDD4F84431DB88121A9342E9DA0B44A3
:10318000E7E74842B3EB600FBFF63CAF0B4439E7CB
:10319000D4F8400190F851304BB94379082B84D8CA
:1031A000DFE803F0192C28241F3935311400FFF70C
:1031B000FEFED4F8402100235365D4F84021136368
:1031C000D4F848010368DB6898476EE7826C416C6D
:1031D000FFF7EAFC69E7D4F8480103689B68984761
:1031E00063E7826C416CFFF7DFFC5EE7C16CFFF7C1
:1031F00059FC5AE7816CFFF773FC56E7826C416C0F
:10320000FFF7D2FC51E7C16CFFF74CFC4DE7816C36
:10321000FFF766FC49E7826C416CFFF7C5FC44E7A9
:103220005B429942BFF655AF936352E75B429942C6
:10323000BFF657AFD36354E704000020002283F8A1
:103240005220D4F84001FFF7B2FED4F84001FFF756
:10325000DAFDD4F840114B79013B072B3FF659AF0B
:10326000DFE803F0040B11171E252B31CA69896AA8
:1032700004F1B800FFF714FA4BE7C96904F1A400A0
:10328000FFF797F945E7096B04F19000FFF72AF97A
:103290003FE7CA69896A04F58270FFF742FB38E7A5
:1032A000CA69896A04F1B800FFF7FAF931E7C96918
:1032B00004F1A400FFF77DF92BE7096B04F19000FE
:1032C000FFF710F925E7CA69896A04F1E400FFF7FE
:1032D00007FBD4F840319A6A5A631AE7496B04F144
:1032E000B800FFF709FAD4F84031D4F8B8205A648E
:1032F000D4F84031D4F8BC209A64D4F8403193F823
:10330000402083F85020D4F8403193F8412083F8CE
:103310005120D4F840311A6B82EAE270A0EBE270DF
:10332000196891F8601051B15979032900F0828031
:1033300007297FD0626982427FD000229A65D4F843
:1033400040315A79032A05D0072A03D062698242A4
:1033500000F08E800022DA65D4F8403183F86020D6
:10336000D4F8440103689B689847002840F08D809A
:10337000D4F8403105229A71FAE6896B04F1A40071
:10338000FFF72EF9D4F84031D4F8A4209A64B4E7BA
:10339000C96B04F19000FFF7BCF8D4F84031D4F8C1
:1033A0009020DA64A9E78A6B496B04F58270FFF715
:1033B000E6FAD4F84031D4F804215A64D4F8403104
:1033C000D4F808219A6498E7496B04F1B800FFF734
:1033D00093F9D4F84031D4F8B8205A64D4F8403185
:1033E000D4F8BC209A6488E7896B04F1A400FFF745
:1033F000F7F8D4F84031D4F8A4209A647DE7C96B7B
:1034000004F19000FFF785F8D4F84031D4F890200B
:10341000DA6472E7496B04F1E400FFF766FAD4F866
:103420004031D4F8E4205A64D4F84031D4F8E8208C
:103430009A6462E7002A3FF47DAFDA6982EAE271BA
:10344000A1EBE271A2682E4D85FB02C5D217C2EB3B
:1034500065029142BFF673AF9A6D2A498A4202D93A
:103460000122DA716BE7D4F88C100A449A6566E79A
:10347000DA6D24498A4203D9012283F860206FE77C
:10348000D4F88C100A44DA656AE7D4F840315A79E6
:103490000AB99A716CE6D97911B104229A7167E67A
:1034A00093F8601011B103229A7161E6012A06D0E7
:1034B000022A11D0032A19D001229A7158E6596CB8
:1034C0005A6B914202D002229A7151E69A6C002AFC
:1034D000F9D101229A714BE6996C9A6B914202D014
:1034E00002229A7144E601229A7141E6D96CDA6BA4
:1034F000914202D002229A713AE601229A7137E68D
:10350000676666663F420F0010B50446D0F8440176
:1035100003685B6898472046FFF758FD10BDF0B57B
:1035200007883C46012309E065465642BEEB660F1C
:1035300001DA02EB0C052C4401339BB28B4209D219
:1035400030F813C0ACEB070EBEEB620FECDDACEB5A
:103550000205EAE794FBF1F0002803DB904200DD6E
:10356000801AF0BD1044F9E770B504468368D3F8BB
:10357000440103685B689847637B062B00F2DC809C
:10358000DFE813F007001C0031006C008400970096
:10359000D2002379002B00F0CF80A368D3F8480134
:1035A000026855681A692169A847A3689B68236166
:1035B0000023E382012262732373BDE0216902319B
:1035C0002161A368D3F84801026855681A69A847C1
:1035D0002269A3689B68B2EB430F40F0AD80236182
:1035E00002236373A8E02569A6687268B5FBF2F34D
:1035F00002FB135303BBD6F844319988E28A531C6B
:103600009BB2E3820C3224F81210102B16D1D6F89C
:103610004431DA68102104F11800FFF780FFB36825
:10362000EB1A7268B3FBF2F31C3324F81300002387
:10363000E3820135256101E001352561D6F84801B5
:1036400003685B683269216998472369A2689268B8
:10365000B3EB420F70D9032363736DE0216901312D
:103660002161A368D3F84801026855681A69A84720
:103670002169A3689A685B6803EB830302EB430349
:10368000B1EB430F58D10423637355E0216901392D
:103690002161A368D3F84801026855681A69A847F0
:1036A0002369A2689268B3EB420F45D10523637387
:1036B00042E02569A6687268B5FBF2F302FB13537A
:1036C0000BBBD6F844319988E28A531C9BB2E38243
:1036D0000C3224F81210102B17D1D6F84431DA68C6
:1036E000102104F11800FFF71AFFB368EB1A726893
:1036F000B3FBF2F3E43304EB430358800023E3828B
:10370000013D256101E0013D2561D6F848010368CE
:103710005B683269216998472269A3689B689A426D
:103720000AD20623637307E0A368D3F8480103684D
:103730005B6800221146984770BD0844B0FBF1F366
:1037400001FB13007047401AB0EB620F00DD801AD6
:103750005342B0EB630F00DA10447047431A084439
:103760004010002BB8BF5B425110B3EB620F04DD79
:10377000814201DC401A7047084470472DE9F84344
:1037800005468768D7F84431D3F80C90684B83FB23
:1037900009234FEAE978C8EBA318002410E004F1EC
:1037A0001C0604F1E40305EB4303D7F84421D26877
:1037B000598835F81600FFF7D1FF25F816000134B7
:1037C000C82CECD9D7F84431DA68B5F8C611288F7F
:1037D000FFF7B9FF064630B10028D4BF0026012606
:1037E0002E7501240FE001232B73BDE8F88302231B
:1037F0002B73FAE702232B73F7E701232B73F4E70C
:1038000000282CDB0134C72C2ED804F11C0304F152
:103810001B01D7F84421D26835F8111035F8130090
:10382000FFF791FF80EAE071A1EBE07108EB48033C
:1038300003EBD373B1EB630FD9DC3D4A82FB093252
:103840004FEAE973C3EBE2139942D3DB0028D4D0EB
:103850000028D5DD002ED3D101232B73C5E7002E20
:10386000D0D001232B73C0E72EBB4FF000094C468C
:103870002CE04446C72C22D804F10108C821404658
:10388000FFF75BFF1C3035F81060C8212046FFF7BA
:1038900054FF1C3035F81020B61A002EE9DA09F171
:1038A0000109C5F85C43D7F84431DB68013B9B1A3A
:1038B000C5F86033DDE74FF000094C46DAE7B9F1AF
:1038C000010F31D003232B738FE74446C72C25D833
:1038D00004F10108C8214046FFF72FFF1C3035F8DE
:1038E0001060C8212046FFF728FF1C3035F8103043
:1038F000F61A002EE9DD09F10109C5F85C43D7F895
:103900004431DE68013EC8214046FFF716FF1C30F7
:1039100035F81030F61AC5F86063D6E7B9F1010F33
:1039200002D003232B7360E700232B735DE700BFF6
:103930001F85EB512DE9F84F437B062B40F0368174
:1039400004468368D3F8480103689B68984720467B
:10395000FFF714FF237B002B40F01781C4F864337A
:1039600023689B682046984723681B682046984731
:10397000237D002B7AD0D4F85C7351E0D4F86053E7
:1039800015E0A268506805FB00F393FBF6F391681D
:1039900007FB0030FFF7D1FE2368DB6881B22046C9
:1039A0009847D4F864330133C4F864330135B54221
:1039B000E7DB34E0A268506805FB00F393FBF6F305
:1039C000916807FB0030FFF7B8FE2368DB6881B21F
:1039D00020469847D4F864330133C4F86433013582
:1039E000D4F86033AB42E5DC19E00025F8E7A268C3
:1039F000506805FB00F393FBF6F3916807FB00307A
:103A0000FFF79BFE2368DB6881B220469847D4F815
:103A100064330133C4F864330135B542E7DB47460C
:103A2000D4F85C93A668356809EB050ABA45C0F27C
:103A30009E8007F1010829464046FFF77EFE1C30B4
:103A400034F810B029463846FFF777FE1C30D6F818
:103A50004431DA6834F810105846FFF774FE064611
:103A6000B9458BD0BA45C0D00025D6E7D4F85C2341
:103A7000A3681B6802EB030855E0D4F8605316E016
:103A8000A268536803FB07F005FB03F393FBF6F30F
:103A90009168C01AFFF751FE2368DB6881B22046A7
:103AA0009847D4F864330133C4F864330135B54220
:103AB000E6DB36E0A268536803FB07F005FB03F37F
:103AC00093FBF6F39168C01AFFF737FE2368DB68B3
:103AD00081B220469847D4F864330133C4F8643384
:103AE0000135D4F86033AB42E4DC1AE00025F8E796
:103AF000A268536803FB07F005FB03F393FBF6F39F
:103B00009168C01AFFF719FE2368DB6881B220466E
:103B10009847D4F864330133C4F864330135B542AF
:103B2000E6DB08F1FF38D4F85C93C1451FDCA668DA
:103B3000356829464046FFF700FE1C3034F810A0D7
:103B400008F1010729463846FFF7F7FD1C30D6F883
:103B50004431DA6834F810105046FFF7F4FD064699
:103B60004D44454589D0C145C0D00025D7E72368DD
:103B70005B6820469847D4F86423A368D3F844319F
:103B8000DB689A4201D004232373237B83B9A368A3
:103B9000D3F8443101221A72A368D3F840310122CC
:103BA000DA71002363732371237B5BB1BDE8F88F67
:103BB000A368D3F8443100221A7223689B68204618
:103BC0009847E9E701F0FEF8F0E7704710B50446C2
:103BD0000368DB68984723685B68204698470123A1
:103BE0002372002300E00133E2689A4209D9A269F6
:103BF00032F813104FF6FF729142F4D10022227274
:103C0000F1E7207A10BD38B504464FF403438383AF
:103C10004FF40443C383002517E00133DBB20F2BBD
:103C20000AD841FA03F212F0010FF6D094F82420DA
:103C3000013284F82420F0E794F8243013F0010FC7
:103C40001BD0002363750135EDB2022D17D8236810
:103C50001B69A18B20469847208423681B69E18B50
:103C6000204698476084238CC1B241EA032189B27F
:103C70002182002384F82430D1E701236375637D1A
:103C80002BB1238A9A086282C3F340032375638AA7
:103C9000A380A26932F81300E08038BD007A704733
:103CA00038B5044683680B44836003681B68017958
:103CB00098476379834218D0054680B16369002034
:103CC0009847A368E2689B1A2269934203D9636903
:103CD0000220984708E063690320984704E063697D
:103CE00001209847A368E360657138BD38B5044684
:103CF0000D4603681B68017998476071656138BD9E
:103D000008B503681B68984708BD10B504464368AA
:103D100019444160052A09D8DFE802F0221C162761
:103D20002E0300230373437301230374237B002BAF
:103D30006ED0637B002B62D0A37B013B032B6DD83D
:103D4000DFE803F0202F3E4D01230373437300236C
:103D50000374EBE701230373002343730374E5E764
:103D60000023037343730374E0E701230373002309
:103D7000437303230374D9E70023037343730223BC
:103D80000374D3E7A368CB1A642B47D923681B6855
:103D900000221146204698476368A3600223A3735C
:103DA0003CE0A368CB1A642B38D923681B68012236
:103DB0000021204698476368A3600323A3732DE086
:103DC000A368CB1A642B29D923681B6800221146EB
:103DD000204698476368A3600423A3731EE0A3688A
:103DE000C91AB1F52F7F19D923681B680122002158
:103DF000204698476368A3600123A3730EE02368FD
:103E00001B6801220021204698470123A37305E087
:103E100023681B680022114620469847237E022B08
:103E200014D0032B34D0012B00D010BD636862691D
:103E30009B1A642BF9D923681B68002201212046B4
:103E400098476368636102232376EEE763686269DB
:103E50009B1A642BE9D9E37B0133DBB2E373227C49
:103E600093420AD223681B680122114620469847D4
:103E70000123237663686361D7E723681B68002208
:103E80000121204698470323237663686361CCE7CA
:103E9000636862699B1AB3F57A7FC6D90023E3731E
:103EA000227C23681B68003A18BF012201212046AA
:103EB00098476368636101232376B6E710B504462B
:103EC0000E4B1A784FF47A73B3FBF2F30C4A106876
:103ED000B0FBF3F000F07AFF68B90F2C01D9012094
:103EE0000AE0002221464FF0FF3000F04DFF054B65
:103EF0001C60002000E0012010BD00BF0500002074
:103F0000000000200800002008B5074A136843F0AD
:103F100010031360032000F025FF0320FFF7CEFFFE
:103F2000FDF7DCFE002008BD00200240034A1168B6
:103F3000034B1B780B441360704700BF000B00203D
:103F400005000020014B1868704700BF000B0020DF
:103F500038B50446FFF7F6FF0546B4F1FF3F02D03F
:103F6000044B1B781C44FFF7EDFF401BA042FAD323
:103F700038BD00BF05000020704708B5436A9A6A43
:103F800012F0500F1ED19A6A42F400729A621A68B7
:103F9000926802F46022B2F5602F03D01846FFF752
:103FA000EBFF08BD1A7B002AF8D19A6A22F48072CE
:103FB0009A629A6A12F4805FF0D19A6A42F0010222
:103FC0009A62EBE71B6A1B6B9847EAE7704708B5F4
:103FD000406AFFF7FBFF08BD704708B5406A836A77
:103FE00043F040038362C36A43F00403C362FFF7F4
:103FF000F3FF08BD30B482B00022019290F8242073
:10400000012A00F08F800346012280F824204A68AC
:10401000062A2DD80468606B02EB8202053A4FF045
:104020001F0C0CFA02FC20EA0C000D6805FA02F2E3
:10403000024362630A68092A38D91C68E06802EB07
:1040400042021E3A4FF0070C0CFA02FC20EA0C0068
:104050008D6805FA02F20243E2600A68103A012A0A
:1040600034D90020002283F8242002B030BC7047ED
:104070000C2A0DD80568286B02EB8202233A1F2414
:10408000944020EA04000C68944020432863D1E760
:104090000568E86A02EB8202413A1F24944020EA54
:1040A00004000C6894402043E862C3E71C68206960
:1040B00002EB42024FF0070C0CFA02FC20EA0C0063
:1040C0008D6805FA02F202432261C6E71A681648B3
:1040D000824205D09A6A42F020029A620120C1E72A
:1040E000906810F4000F1BD1906840F400009060BD
:1040F0000A68102A01D00020B4E70C4A12680C4963
:10410000A1FB0212920C02EB82025200019202E029
:10411000019A013A0192019A002AF9D10020A1E7FF
:1041200000209FE70220A0E70024014000000020BB
:1041300083DE1B4330B583B00023019303689A6884
:1041400012F0010F33D104469A6842F001029A60DE
:10415000184B1B68184AA2FB03239B0C019302E037
:10416000019B013B0193019B002BF9D1FFF7EAFE74
:10417000054623689B6813F0010F16D1FFF7E2FE96
:10418000431B022BF5D923689B6813F0010FF0D174
:10419000A36A43F01003A362E36A43F00103E362FE
:1041A000002384F82430012002E0002000E00020F9
:1041B00003B030BD0000002083DE1B43F8B5044689
:1041C0000D46164601684448814259D0434B9942F6
:1041D00056D094F82430012B7CD0012384F824306D
:1041E0002046FFF7A7FF074600286ED1A16A21F4F9
:1041F000706121F0010141F48071A1622268374BA6
:104200009A4244D0A36A23F48013A362536813F440
:10421000806F05D0A36A23F4405343F48053A36214
:10422000A36A13F4805F48D0E36A23F00603E362D5
:10423000002384F82430236A294A9A62236A294A8F
:10424000DA62236A284A1A6323686FF002021A604E
:104250002268936843F480739360216833462A464A
:104260004C31206A00F012FE23689A6802F4602242
:10427000B2F5602F24D09A6842F480129A6027E049
:10428000154B5B6813F4702FA3D0012720E0A3F532
:1042900080635B6813F4702FB4D0A36A43F4801377
:1042A000A3620D4B5B6813F4806FB9D0A36A23F44B
:1042B000405343F48053A362B2E70023E362B7E7BD
:1042C0009A6842F4A0029A6002E0002384F8243045
:1042D0003846F8BD0227FBE70024014000280140D2
:1042E0007B3F0008CF3F0008DB3F000838B503687C
:1042F0009A6812F0010F01D1002038BD04469A6877
:1043000022F001029A60FFF71DFE054623689B68B4
:1043100013F0010F13D0FFF715FE431B022BF5D945
:1043200023689B6813F0010FF0D0A36A43F01003D9
:10433000A362E36A43F00103E3620120DDE70020AA
:10434000DBE7000000287BD070B50446836A002BB1
:104350004DD02046FFF7CAFFA36A13F0100369D1BE
:10436000002867D1A26A22F4885222F0020242F0A9
:104370000202A2626268E1690A43217B42EA4102C9
:10438000A568B5F5807F02D0012D36D01D46267D6B
:10439000012E35D02668716821F469412943716086
:1043A0002568AE68274931401143A960A168B1F57D
:1043B000807F01D0012902D12369013B1B052568BB
:1043C000E96A21F470010B43EB62236899681E4B84
:1043D0000B409A4225D0A36A23F0120343F0100346
:1043E000A362E36A43F00103E362012027E0C362B2
:1043F00080F82430FDF758F9ABE74FF48075C6E735
:1044000031B9A169013945EA413141F40065C1E79B
:10441000A16A41F02001A162E16A41F00101E1627B
:10442000B8E70023E362A36A23F0030343F0010328
:10443000A36204E0A36A43F01003A362012070BDED
:1044400001207047FDF7E1FFFE0E1FFF70B582B03F
:104450000023019390F82430012B72D004460123ED
:1044600080F82430FFF742FF054628B1002384F886
:104470002430284602B070BDA36A23F4885323F089
:10448000020343F00203A3622F4B1E68022001F0D7
:104490008BFCB6FBF0F67600019602E0019B013B37
:1044A0000193019B002BF9D12046FFF743FE2268C0
:1044B000936843F008039360FFF744FD06462368C2
:1044C0009A6812F0080F14D0FFF73CFD801B0A28F1
:1044D000F5D923689B6813F0080FF0D0A36A23F086
:1044E000120343F01003A362002384F82430012553
:1044F000BFE79A6842F004029A60FFF723FD064680
:1045000023689B6813F0040F14D0FFF71BFD801B7A
:104510000A28F5D923689B6813F0040FF0D0A36A2A
:1045200023F0120343F01003A362002384F8243025
:1045300001259EE7A36A23F0030343F00103A3626E
:1045400094E7022595E700BF00000020002800F056
:10455000A18038B5044690F82030D3B122681368A2
:1045600043F001031360FFF7EDFC054623685A682A
:1045700012F0010F10D1FFF7E5FC401B0A28F5D916
:10458000636A43F400336362052384F8203001201A
:1045900038BDFDF777F9E1E71A6822F002021A60E8
:1045A000FFF7D0FC054623685A6812F0020F0DD0C1
:1045B000FFF7C8FC401B0A28F5D9636A43F40033AF
:1045C0006362052384F820300120E1E7227E012A7E
:1045D0003DD01A6822F080021A60637E012B3BD026
:1045E0002268136823F040031360A37E012B39D0A7
:1045F0002268136823F020031360E37E012B37D079
:104600002268136843F010031360237F012B35D019
:104610002268136823F008031360637F012B33D0F3
:104620002268136823F004031360A368E26813434D
:1046300022691343626913436268013A2168134394
:10464000CB6100206062012384F82030A0E71A6863
:1046500042F080021A60C0E72268136843F040030A
:104660001360C2E72268136843F020031360C4E7B5
:104670002268136823F010031360C6E722681368EA
:1046800043F008031360C8E72268136843F004038B
:104690001360CAE701207047026890F82030013BA0
:1046A000DBB2012B05D9436A43F480234362012026
:1046B000704710B5D2F8003243F00103C2F800325F
:1046C0004B6903F01F03012000FA03F3D2F81C0228
:1046D0006FEA030C20EA0300C2F81C02C869C0B9E3
:1046E000D2F80C020CEA0000C2F80C028C8848696F
:1046F000D1F80CE044EA0E44483042F830400C88CF
:104700004869D1F808E044EA0E44483002EBC000A2
:104710004460C86901281AD0886988BBD2F80402AD
:104720000CEA0000C2F80402086978BBD2F814024F
:104730000CEA0000C2F81402096A01292CD0D2F850
:10474000003223F00103C2F80032002010BDD2F87D
:104750000C021843C2F80C028C884869D1F800E0BA
:1047600044EA0E44483042F830408C894869D1F818
:1047700008E044EA0E44483002EBC0004460CBE756
:10478000D2F804021843C2F80402CDE7D2F81402AA
:104790001843C2F81402CFE7D2F81C120B43C2F838
:1047A0001C32CCE770B5044690F82050EDB2012DD4
:1047B00006D0436A43F4002343620125284670BDB6
:1047C000022380F820300268136823F0010313608D
:1047D000FFF7B8FB064623685B6813F0010F0CD0A7
:1047E000FFF7B0FB831B0A2BF5D9636A43F4003350
:1047F0006362052384F82030E0E700256562DDE789
:1048000030B590F820C00468A4680CF1FF3C5FFA52
:104810008CFCBCF1010F6BD814F0E05F62D0C4F3E4
:10482000016CBCF1020F05D9436A43F400034362F3
:10483000012062E0012404FA0CF41C608B68002B58
:104840003DD10D68CB68046843EA45550CF1180367
:104850001B01E55003680C690CF1180E03EB0E13F5
:104860005C600B7D012B35D0D17993791B0443EA31
:104870000163517943EA012314790168234301EB71
:104880000C11C1F88C31D17893781B0443EA016391
:10489000517843EA0123117802680B4302EB0C12B2
:1048A000C2F8883102680CF1180C4FEA0C1C52F85F
:1048B0000C3043F0010342F80C3000201DE04C683E
:1048C00043EAC403CC6823430CF1180424010568AF
:1048D0002B51BFE7036803EB0E13596841F4807155
:1048E0005960C1E7436A43F400134362012004E0C6
:1048F000436A43F480234362012030BD90F820C016
:104900000CF1FF3C5FFA8CFCBCF1010F00F29B80C4
:1049100010B451B90468E46814F0030F10D1436A6D
:1049200043F40013436201207BE00468246914F01F
:10493000030F05D1436A43F400134362012070E082
:1049400001F11B042401D0F800C05CF8044004F01D
:1049500004049460002C66D101F11B042401D0F8FA
:1049600000C05CF80440640D1460046801F11B0C85
:104970004FEA0C1C54F80C4004F00204D4600468A4
:104980006444646804F00F04146104686444646857
:10499000C4F307249461046864446468240C54617B
:1049A000026802EB0112D2F8B8211A70026802EB19
:1049B0000112D2F8B821C2F307225A70026802EB42
:1049C0000112D2F8B821C2F307429A70026802EBD2
:1049D0000112D2F8B821120EDA70026802EB01124D
:1049E000D2F8BC211A71026802EB0112D2F8BC2184
:1049F000C2F307225A71026802EB0112D2F8BC21FD
:104A0000C2F307429A71026802EB0112D2F8BC218C
:104A1000120EDA7189B90268D36843F02003D360BB
:104A2000002010BC704701F11B042401D0F800C025
:104A30005CF80440E408546097E70268136943F0A7
:104A400020031361ECE7436A43F4802343620120AF
:104A5000704790F82030013BDBB2012B05D9436A47
:104A600043F48023436201207047026853690B437B
:104A70005361002070477047704770477047704718
:104A800070477047704770477047704770472DE90F
:104A9000F84F054603685C69D3F804809F68D3F833
:104AA0000CB0D3F810A0D3F8189014F001063BD046
:104AB00017F0010616D001229A6017F0020F08D1F4
:104AC00017F0040F0CD117F0080606D04FF48056EB
:104AD00008E0FFF7D0FF002604E0FFF7CFFF01E07A
:104AE0004FF4006617F4807F0DD02B684FF480726E
:104AF0009A6017F4007F40F0868017F4806F00F012
:104B0000868046F4005617F4803F0DD02B684FF492
:104B100080329A6017F4003F40F0838017F4802FB2
:104B200000F0838046F4004614F0080F07D01BF015
:104B3000100F04D046F400762B681022DA6014F0CF
:104B4000040F02D01BF0080F79D114F0020F04D02B
:104B50002B68DB6813F0030F78D114F0400F07D0F7
:104B60001AF0100F04D046F480662B6810221A61E8
:104B700014F0200F02D01AF0080F6BD114F0100FB0
:104B800004D02B681B6913F0030F6AD114F4003FA3
:104B900002D018F0100F68D114F4803F02D018F042
:104BA000080F69D114F4004F7AD018F0040F74D0B4
:104BB00014F4807F04D019F0010F01D046F00106F3
:104BC00014F4007F04D019F0020F01D046F0020661
:104BD00014F4806F04D019F0040F01D046F00406DD
:104BE00014F4006F59D019F0700956D0B9F1400F84
:104BF00065D058D8B9F1200F5ED0B9F1300F42D14D
:104C000046F0200644E02846FFF736FF7BE717F41E
:104C1000006F02D046F4804675E72846FFF72FFF65
:104C200071E72846FFF729FF7EE717F4002F02D02F
:104C300046F4803678E72846FFF722FF74E72B68B2
:104C40000822DA602846FFF71CFF7EE72846FCF7BB
:104C50008DFE82E72B6808221A612846FFF713FFB2
:104C60008CE72846FFF70EFF90E72B6810225A606A
:104C70002846FFF709FF8FE72B6808225A6028466D
:104C8000FFF703FF8EE7B9F1100F01D146F00806D8
:104C90002A68936923F0700393612B6804225A6099
:104CA0009EB9BDE8F88FB9F1500F0BD0B9F1600F84
:104CB000EED146F48076EBE746F01006E8E746F0E2
:104CC0004006E5E746F08006E2E76B6A33436B6235
:104CD0002846FFF7DBFEE4E7002808DB0901C9B23C
:104CE00000F1604000F5614080F80013704700F06B
:104CF0000F000901C9B2014B1954704714ED00E0CF
:104D000000B500F00700C0F1070CBCF1040F28BF8C
:104D10004FF0040C031D062B0FD9C31E4FF0FF3EAE
:104D20000EFA0CF021EA000199400EFA03FE22EA85
:104D30000E0241EA02005DF804FB0023EEE70000EA
:104D4000BFF34F8F0549CA6802F4E062044B134376
:104D5000CB60BFF34F8F00BFFDE700BF00ED00E069
:104D60000400FA05074AD36823F4E0631B041B0C14
:104D7000000200F4E060034343F0BF6343F40033F8
:104D8000D360704700ED00E010B50446054BD868CD
:104D9000C0F30220FFF7B4FF01462046FFF79CFF57
:104DA00010BD00BF00ED00E0002807DB00F01F028F
:104DB000400901239340024A42F82030704700BF67
:104DC00000E100E008B5FFF7BBFF00000138B0F1DB
:104DD000807F0BD24FF0E0235861054AF02182F822
:104DE00023100020986107221A6170470120704744
:104DF00000ED00E030B40124056CAC40C56B6C6084
:104E0000046863604368102B05D0036899600368E9
:104E1000DA6030BC704703689A600368D960F8E7CD
:104E200060B310B402460168154B0B441548A0FB53
:104E300003031B099B001364134BD363022382F803
:104E40002130086820F47F5020F0300053689468C7
:104E50002343D46823431469234354692343946947
:104E60002343D469234303430B6000209063012351
:104E700082F8213082F8200010BC70470120704772
:104E8000F8FFFDBFCDCCCCCC0000024038B50446C5
:104E900090F82000012831D0012084F8200094F8F7
:104EA0002100012804D0002384F82030022038BDDE
:104EB000022084F821000020A0632568286820F0E3
:104EC000010028602046FFF795FFE36A5BB1226886
:104ED000136843F00E0313602268136843F0010364
:104EE00013600020E3E72268136823F004031360D3
:104EF0002268136843F00A031360EDE70220D6E747
:104F0000034690F82120022A06D004228263002260
:104F100080F820200120704701680A6822F00E0204
:104F20000A6001680A6822F001020A60026CC06B24
:104F3000012101FA02F2426083F82110002083F877
:104F40002000704708B590F82130022B03D00423CD
:104F50008363012008BD0268136823F00E03136009
:104F60000268136823F0010313600368194A93422F
:104F700014D0143293421FD0143293421ED01432F4
:104F800093421ED0143293421ED01432934202D068
:104F90004FF0807203E04FF4801200E001220E4BCC
:104FA0005A60012380F82130002380F82030436BC1
:104FB0006BB198470020CDE71022F0E74FF48072E4
:104FC000EDE74FF48052EAE74FF48032E7E7002044
:104FD000C0E700BF080002400000024038B5C36BC4
:104FE0001A6804682568016C04238B40134235D08D
:104FF00015F0040F32D0236813F0200F03D123687B
:1050000023F0040323600368434A934214D014320C
:10501000934218D01432934217D01432934217D0CF
:105020001432934217D01432934202D04FF0806270
:1050300003E04FF4800200E00422384B5A60C36A58
:1050400003B1984738BD4022F7E74FF48062F4E798
:105050004FF48042F1E74FF48022EEE702238B40C9
:1050600013423CD015F0020F39D0236813F0200F03
:1050700006D1236823F00A032360012380F821303E
:105080000368254A934214D0143293421CD0143240
:1050900093421BD0143293421BD0143293421BD044
:1050A0001432934202D04FF0007203E04FF400122A
:1050B00000E00222194B5A60002380F82030836AF6
:1050C000002BBFD09847BDE72022F3E74FF40072D2
:1050D000F0E74FF40052EDE74FF40032EAE708231F
:1050E0008B401342AED015F0080FABD0236823F0ED
:1050F0000E032360026CC16B012303FA02F24A60C3
:10510000836380F82130002380F82030036B002B6C
:1051100098D0984796E700BF080002400000024080
:10512000044B0022DA61044A136943F0010313615E
:1051300001807047080B002000200240194BDB68FB
:1051400013F0100305D0184AD36943F00203D3616A
:105150001023144AD26812F0040F06D01249CA690B
:1051600042F00102CA6143F004030E4AD26912F010
:10517000010F09D00C49CA6942F00402CA61094909
:10518000CA6922F00102CA6140F20112934202D0C0
:10519000044AD3607047034AD36923F00103D36103
:1051A000704700BF00200240080B00200A4B1B691B
:1051B00013F0800F0BD0084B084A5A6002F1883276
:1051C0005A601B6913F0800F03D100207047002044
:1051D00070470120704700BF00200240230167454F
:1051E000034A136943F0800313610020704700BF36
:1051F0000020024038B50446FEF7A4FE0546164BD3
:10520000DB6813F0010F0AD0B4F1FF3FF7D024B1EF
:10521000FEF798FE401BA042F1D903201BE00E4B85
:10522000DB6813F0200F02D00B4B2022DA600A4B10
:10523000DB6813F0100F0BD1074BDB6913F0010F84
:1052400006D1054BDB6813F0040F01D1002002E00A
:10525000FFF774FF012038BD002002402DE9F8431C
:105260001E46244B1B7E012B41D004460F46904620
:10527000204B01221A764CF25030FFF7BBFF034659
:1052800078BB012C08D0022C03D04FF004091C4637
:1052900007E04FF00209FAE74FF00109F7E70134A0
:1052A000E4B24C451DD22101C1F12002A1F120033D
:1052B00028FA01F106FA02F2114326FA03F3194320
:1052C00089B207EB4400FFF72BFF4CF25030FFF799
:1052D00091FF094B1D6925F001051D61034600285A
:1052E000DDD0044A002111761846BDE8F883022378
:1052F000FAE700BF080B002000200240064B002206
:10530000DA61064B1A6942F004021A611A6942F026
:1053100040021A61704700BF080B002000200240C5
:10532000064B0022DA61064B1A6942F002021A614A
:1053300058611A6942F040021A617047080B002058
:1053400000200240264B1B7E012B46D070B505463F
:105350000E46234B01221A760368022B20D04CF212
:105360005030FFF747FF90BB4FF0FF333360AC681E
:105370000121EA68AB6803EB8223A34228D92046C7
:10538000FFF7CEFF4CF25030FFF734FF154A136998
:1053900023F0020313610146B8B904F58064E8E71D
:1053A0004CF25030FFF726FF08B1012110E0012038
:1053B000FFF7A4FF4CF25030FFF71CFF0146094AEB
:1053C000136923F00403136102E0346000E001215B
:1053D000034B00221A76084670BD0221084670472A
:1053E000080B00200020024070B582B00024A446C3
:1053F000A2E07E4DAB4210D007D97D4DAB420CD020
:1054000005F58035AB4208D013E0A5F58015AB4219
:1054100003D005F57025AB4207D18B68002B55D022
:10542000012B4ED04261082403E0A5F58015AB4264
:10543000F3D0BEF1FF0F4BD806464FEA8C0233681B
:105440000F25954023EA050304FA02F21343336063
:105450004B6813F0805F6DD0664B9A6942F0010291
:105460009A619B6903F001030193019B4FEA9C023F
:10547000951C614B53F825600CF00305AD000F231C
:10548000AB4026EA03065D4B984228D003F58063C3
:10549000984200F08D8003F58063984200F08A8086
:1054A00003F58063984218D0042319E0CC68C0E764
:1054B000CC680434BDE7CC680834BAE7CC680C3457
:1054C000B7E702610824B4E70024B2E70424B0E798
:1054D000061DACF108029200B1E7032300E00023AF
:1054E000AB4033430232444D45F822304B6813F44D
:1054F000803F61D0424A136843EA0E0313604B6851
:1055000013F4003F5ED03E4A536843EA0E035360F3
:105510004B6813F4801F5BD0394A936843EA0E034B
:1055200093604B6813F4001F58D0354AD36843EAA0
:105530000E03D3600CF1010C0B6833FA0CF253D05C
:10554000012202FA0CF203EA020E32EA0303F1D15D
:105550004B68122B3FF64DAF122B3FF66AAF01A5F9
:1055600055F823F01B540008AD540008B754000848
:10557000C954000833540008335400083354000859
:1055800033540008335400083354000833540008DF
:1055900033540008335400083354000833540008CF
:1055A0003354000833540008B1540008BD540008B7
:1055B000012395E7022393E7114A136823EA0E03B8
:1055C00013609CE70E4A536823EA0E0353609FE77B
:1055D0000B4A936823EA0E039360A2E7084AD36854
:1055E00023EA0E03D360A5E702B070BD00002210CD
:1055F000000031100010024000000140000801408E
:10560000000401408368194201D001207047002046
:1056100070470AB1016170470904016170470000D9
:1056200082B0084B1B68084AA2FB03235B0A00FBFD
:1056300003F3019300BF019B5A1E0192002BF9D185
:1056400002B0704700000020D34D6210002800F027
:10565000F18170B582B00446036813F0010F2CD0BD
:10566000994B5B6803F00C03042B1DD0964B5B68D1
:1056700003F00C03082B12D06368B3F5803F41D0D0
:10568000002B55D103F1804303F504331A6822F44B
:1056900080321A601A6822F480221A6037E08A4B3E
:1056A0005B6813F4803FE7D0874B1B6813F4003F1F
:1056B00003D06368002B00F0BF81236813F0020F52
:1056C00075D0814B5B6813F00C0F5FD07E4B5B682D
:1056D00003F00C03082B54D02369002B00F08A80C0
:1056E0007A4B01221A60FEF72DFC0546764B1B68AB
:1056F00013F0020F75D1FEF725FC401B0228F5D9E7
:1057000003209EE1704A136843F48033136063689A
:1057100043B3FEF717FC05466B4B1B6813F4003FC1
:10572000CBD1FEF70FFC401B6428F5D9032088E19C
:10573000B3F5A02F09D0644B1A6822F480321A60A6
:105740001A6822F480221A60E1E703F18043A3F58E
:105750003C331A6842F480221A601A6842F480329C
:105760001A60D4E7FEF7EEFB0546574B1B6813F4AF
:10577000003FA2D0FEF7E6FB401B6428F5D90320CA
:105780005FE1514B5B6813F4803FA5D14E4B1B6822
:1057900013F0020F03D02369012B40F04F814A4AD6
:1057A000136823F0F803616943EAC10313602368B7
:1057B00013F0080F33D0A369002B5CD0434B0122B8
:1057C000C3F88024FEF7BEFB05463F4B5B6A13F02F
:1057D000020F21D1FEF7B6FB401B0228F5D90320AA
:1057E0002FE1394A136823F0F803616943EAC103E2
:1057F0001360DCE7354B00221A60FEF7A3FB054679
:10580000314B1B6813F0020FD1D0FEF79BFB401BFE
:105810000228F5D9032014E10120FFF701FF2368D6
:1058200013F0040F00F09680274BDB6913F0805FC4
:1058300034D1254BDA6942F08052DA61DB6903F03A
:1058400080530193019B0125214B1B6813F4807F3A
:1058500026D0E368012B3DD0002B53D103F18043C8
:1058600003F504331A6A22F001021A621A6A22F05E
:1058700004021A6233E0154B0022C3F88024FEF7BD
:1058800061FB0546104B5B6A13F0020FC7D0FEF7B1
:1058900059FB401B0228F5D90320D2E00025D3E7AD
:1058A0000B4A136843F480731360FEF74BFB064604
:1058B000074B1B6813F4807FCBD1FEF743FB801BA3
:1058C0006428F5D90320BCE00010024000004242E9
:1058D000007000405F4A136A43F001031362E368FB
:1058E00033B3FEF72FFB06465A4B1B6A13F0020F29
:1058F0002FD1FEF727FB801B41F288339842F3D962
:1059000003209EE0052B09D0524B1A6A22F00102B7
:105910001A621A6A22F004021A62E0E74D4B1A6A10
:1059200042F004021A621A6A42F001021A62D6E7D1
:10593000FEF708FB0646474B1B6A13F0020F08D020
:10594000FEF700FB801B41F288339842F3D9032015
:1059500077E0E5B9E369002B72D03E4A526802F065
:105960000C02082A56D0022B17D03B4B00221A6695
:10597000FEF7E8FA0446374B1B6813F0007F47D068
:10598000FEF7E0FA001B0228F5D9032059E0314A5E
:10599000D36923F08053D361DCE72F4B00221A66D2
:1059A000FEF7D0FA05462B4B1B6813F0007F06D09C
:1059B000FEF7C8FA401B0228F5D9032041E0236A0C
:1059C000B3F5803F1AD023494B6823F47413226A3D
:1059D000606A024313434B601F4B01221A66FEF7B5
:1059E000B1FA04461B4B1B6813F0007F0ED1FEF783
:1059F000A9FA001B0228F5D9032022E0154A5368B2
:105A000023F40033A1680B435360DCE7002018E067
:105A1000002016E0012B16D00E4B5B6803F480319A
:105A2000226A914211D103F47013626A93420ED13B
:105A3000002006E001207047012002E0012000E084
:105A4000002002B070BD0120FBE70120F9E7012032
:105A5000F7E700BF001002400000424286B0194B39
:105A60000FCB0DF1180C0CE90F0040F20123ADF83B
:105A70000430154B5A6802F00C03042B1CD0082B81
:105A80001CD1C2F3834318336B4413F8100C12F487
:105A9000803F0DD00C4B5B68C3F3404318336B441D
:105AA00013F8143C094A02FB00F0B0FBF3F006E0E7
:105AB000074B03FB00F002E0044800E0054806B095
:105AC000704700BFD027010800100240001BB7003C
:105AD00000093D0000127A00002800F0A08070B597
